{
  "_format": "hh-sol-artifact-1",
  "contractName": "Voting",
  "sourceName": "contracts/Voting.sol",
  "abi": [
    {
      "inputs": [
        {
          "internalType": "string[]",
          "name": "_candidateNames",
          "type": "string[]"
        },
        {
          "internalType": "uint256",
          "name": "startTime",
          "type": "uint256"
        },
        {
          "internalType": "uint256",
          "name": "_durationInMinutes",
          "type": "uint256"
        }
      ],
      "stateMutability": "nonpayable",
      "type": "constructor"
    },
    {
      "inputs": [
        {
          "internalType": "string",
          "name": "_name",
          "type": "string"
        }
      ],
      "name": "addCandidate",
      "outputs": [],
      "stateMutability": "nonpayable",
      "type": "function"
    },
    {
      "inputs": [
        {
          "internalType": "uint256",
          "name": "",
          "type": "uint256"
        }
      ],
      "name": "candidates",
      "outputs": [
        {
          "internalType": "string",
          "name": "name",
          "type": "string"
        },
        {
          "internalType": "uint256",
          "name": "voteCount",
          "type": "uint256"
        }
      ],
      "stateMutability": "view",
      "type": "function"
    },
    {
      "inputs": [],
      "name": "determineWinner",
      "outputs": [
        {
          "components": [
            {
              "internalType": "string",
              "name": "name",
              "type": "string"
            },
            {
              "internalType": "uint256",
              "name": "voteCount",
              "type": "uint256"
            }
          ],
          "internalType": "struct Voting.Candidate",
          "name": "",
          "type": "tuple"
        }
      ],
      "stateMutability": "view",
      "type": "function"
    },
    {
      "inputs": [],
      "name": "getAllVotesOfCandiates",
      "outputs": [
        {
          "components": [
            {
              "internalType": "string",
              "name": "name",
              "type": "string"
            },
            {
              "internalType": "uint256",
              "name": "voteCount",
              "type": "uint256"
            }
          ],
          "internalType": "struct Voting.Candidate[]",
          "name": "",
          "type": "tuple[]"
        }
      ],
      "stateMutability": "view",
      "type": "function"
    },
    {
      "inputs": [
        {
          "internalType": "uint256",
          "name": "currentTime",
          "type": "uint256"
        }
      ],
      "name": "getRemainingTime",
      "outputs": [
        {
          "internalType": "uint256",
          "name": "",
          "type": "uint256"
        }
      ],
      "stateMutability": "view",
      "type": "function"
    },
    {
      "inputs": [
        {
          "internalType": "uint256",
          "name": "currentTime",
          "type": "uint256"
        }
      ],
      "name": "getVotingStatus",
      "outputs": [
        {
          "internalType": "bool",
          "name": "",
          "type": "bool"
        }
      ],
      "stateMutability": "view",
      "type": "function"
    },
    {
      "inputs": [
        {
          "internalType": "string",
          "name": "_name",
          "type": "string"
        }
      ],
      "name": "proposeCandidate",
      "outputs": [],
      "stateMutability": "nonpayable",
      "type": "function"
    },
    {
      "inputs": [
        {
          "internalType": "uint256",
          "name": "_candidateIndex",
          "type": "uint256"
        }
      ],
      "name": "vote",
      "outputs": [],
      "stateMutability": "nonpayable",
      "type": "function"
    },
    {
      "inputs": [
        {
          "internalType": "address",
          "name": "",
          "type": "address"
        }
      ],
      "name": "voters",
      "outputs": [
        {
          "internalType": "bool",
          "name": "",
          "type": "bool"
        }
      ],
      "stateMutability": "view",
      "type": "function"
    },
    {
      "inputs": [],
      "name": "votingEnd",
      "outputs": [
        {
          "internalType": "uint256",
          "name": "",
          "type": "uint256"
        }
      ],
      "stateMutability": "view",
      "type": "function"
    },
    {
      "inputs": [],
      "name": "votingStart",
      "outputs": [
        {
          "internalType": "uint256",
          "name": "",
          "type": "uint256"
        }
      ],
      "stateMutability": "view",
      "type": "function"
    }
  ],
  "bytecode": "0x60806040523480156200001157600080fd5b5060405162001e6438038062001e64833981810160405281019062000037919062000429565b60005b8351811015620000dc5760006040518060400160405280868481518110620000675762000066620004a4565b5b60200260200101518152602001600081525090806001815401808255809150506001900390600052602060002090600202016000909190919091506000820151816000019081620000b9919062000714565b506020820151816001015550508080620000d3906200082a565b9150506200003a565b5033600160006101000a81548173ffffffffffffffffffffffffffffffffffffffff021916908373ffffffffffffffffffffffffffffffffffffffff160217905550816003819055506103e8603c8262000137919062000877565b62000143919062000877565b82620001509190620008c2565b600481905550505050620008fd565b6000604051905090565b600080fd5b600080fd5b600080fd5b6000601f19601f8301169050919050565b7f4e487b7100000000000000000000000000000000000000000000000000000000600052604160045260246000fd5b620001c38262000178565b810181811067ffffffffffffffff82111715620001e557620001e462000189565b5b80604052505050565b6000620001fa6200015f565b9050620002088282620001b8565b919050565b600067ffffffffffffffff8211156200022b576200022a62000189565b5b602082029050602081019050919050565b600080fd5b600080fd5b600067ffffffffffffffff82111562000264576200026362000189565b5b6200026f8262000178565b9050602081019050919050565b60005b838110156200029c5780820151818401526020810190506200027f565b60008484015250505050565b6000620002bf620002b98462000246565b620001ee565b905082815260208101848484011115620002de57620002dd62000241565b5b620002eb8482856200027c565b509392505050565b600082601f8301126200030b576200030a62000173565b5b81516200031d848260208601620002a8565b91505092915050565b60006200033d62000337846200020d565b620001ee565b905080838252602082019050602084028301858111156200036357620003626200023c565b5b835b81811015620003b157805167ffffffffffffffff8111156200038c576200038b62000173565b5b8086016200039b8982620002f3565b8552602085019450505060208101905062000365565b5050509392505050565b600082601f830112620003d357620003d262000173565b5b8151620003e584826020860162000326565b91505092915050565b6000819050919050565b6200040381620003ee565b81146200040f57600080fd5b50565b6000815190506200042381620003f8565b92915050565b60008060006060848603121562000445576200044462000169565b5b600084015167ffffffffffffffff8111156200046657620004656200016e565b5b6200047486828701620003bb565b9350506020620004878682870162000412565b92505060406200049a8682870162000412565b9150509250925092565b7f4e487b7100000000000000000000000000000000000000000000000000000000600052603260045260246000fd5b600081519050919050565b7f4e487b7100000000000000000000000000000000000000000000000000000000600052602260045260246000fd5b600060028204905060018216806200052657607f821691505b6020821081036200053c576200053b620004de565b5b50919050565b60008190508160005260206000209050919050565b60006020601f8301049050919050565b600082821b905092915050565b600060088302620005a67fffffffffffffffffffffffffffffffffffffffffffffffffffffffffffffffff8262000567565b620005b2868362000567565b95508019841693508086168417925050509392505050565b6000819050919050565b6000620005f5620005ef620005e984620003ee565b620005ca565b620003ee565b9050919050565b6000819050919050565b6200061183620005d4565b620006296200062082620005fc565b84845462000574565b825550505050565b600090565b6200064062000631565b6200064d81848462000606565b505050565b5b8181101562000675576200066960008262000636565b60018101905062000653565b5050565b601f821115620006c4576200068e8162000542565b620006998462000557565b81016020851015620006a9578190505b620006c1620006b88562000557565b83018262000652565b50505b505050565b600082821c905092915050565b6000620006e960001984600802620006c9565b1980831691505092915050565b6000620007048383620006d6565b9150826002028217905092915050565b6200071f82620004d3565b67ffffffffffffffff8111156200073b576200073a62000189565b5b6200074782546200050d565b6200075482828562000679565b600060209050601f8311600181146200078c576000841562000777578287015190505b620007838582620006f6565b865550620007f3565b601f1984166200079c8662000542565b60005b82811015620007c6578489015182556001820191506020850194506020810190506200079f565b86831015620007e65784890151620007e2601f891682620006d6565b8355505b6001600288020188555050505b505050505050565b7f4e487b7100000000000000000000000000000000000000000000000000000000600052601160045260246000fd5b60006200083782620003ee565b91507fffffffffffffffffffffffffffffffffffffffffffffffffffffffffffffffff82036200086c576200086b620007fb565b5b600182019050919050565b60006200088482620003ee565b91506200089183620003ee565b9250828202620008a181620003ee565b91508282048414831517620008bb57620008ba620007fb565b5b5092915050565b6000620008cf82620003ee565b9150620008dc83620003ee565b9250828201905080821115620008f757620008f6620007fb565b5b92915050565b611557806200090d6000396000f3fe608060405234801561001057600080fd5b50600436106100a95760003560e01c8063462e91ec11610071578063462e91ec146101675780634d6bda5f1461018357806385a38635146101a15780638f633994146101bf57806398ab4863146101ef578063a3ec138d1461020b576100a9565b80630121b93f146100ae578063101158af146100ca578063181e0124146100e857806333b16d93146101185780633477ee2e14610136575b600080fd5b6100c860048036038101906100c39190610ac2565b61023b565b005b6100d261048e565b6040516100df9190610afe565b60405180910390f35b61010260048036038101906100fd9190610ac2565b610494565b60405161010f9190610afe565b60405180910390f35b610120610503565b60405161012d9190610bf5565b60405180910390f35b610150600480360381019061014b9190610ac2565b610662565b60405161015e929190610c61565b60405180910390f35b610181600480360381019061017c9190610dc6565b61071e565b005b61018b6107de565b6040516101989190610f0e565b60405180910390f35b6101a96108d9565b6040516101b69190610afe565b60405180910390f35b6101d960048036038101906101d49190610ac2565b6108df565b6040516101e69190610f4b565b60405180910390f35b61020960048036038101906102049190610dc6565b6108fb565b005b61022560048036038101906102209190610fc4565b610a3e565b6040516102329190610f4b565b60405180910390f35b600260003373ffffffffffffffffffffffffffffffffffffffff1673ffffffffffffffffffffffffffffffffffffffff16815260200190815260200160002060009054906101000a900460ff16156102c8576040517f08c379a00000000000000000000000000000000000000000000000000000000081526004016102bf9061103d565b60405180910390fd5b600080549050811061030f576040517f08c379a0000000000000000000000000000000000000000000000000000000008152600401610306906110a9565b60405180910390fd5b6000600190507370997970c51812dc3a010c7d01b50e0d17dc79c873ffffffffffffffffffffffffffffffffffffffff163373ffffffffffffffffffffffffffffffffffffffff1614806103a25750736da9031429f83c8f3bcb225468535d7dd705e6e073ffffffffffffffffffffffffffffffffffffffff163373ffffffffffffffffffffffffffffffffffffffff16145b806103ec57507390f79bf6eb2c4f870365e785982e1f101e93b90673ffffffffffffffffffffffffffffffffffffffff163373ffffffffffffffffffffffffffffffffffffffff16145b156103f657600290505b806000838154811061040b5761040a6110c9565b5b9060005260206000209060020201600101600082825461042b9190611127565b925050819055506001600260003373ffffffffffffffffffffffffffffffffffffffff1673ffffffffffffffffffffffffffffffffffffffff16815260200190815260200160002060006101000a81548160ff0219169083151502179055505050565b60035481565b60006003548210156104db576040517f08c379a00000000000000000000000000000000000000000000000000000000081526004016104d2906111a7565b60405180910390fd5b60045482106104ed57600090506104fe565b816004546104fb91906111c7565b90505b919050565b61050b610a5e565b6000610515610a5e565b60005b6000805490508110156106595760008181548110610539576105386110c9565b5b9060005260206000209060020201600101548310156106465760008181548110610566576105656110c9565b5b90600052602060002090600202016001015492506000818154811061058e5761058d6110c9565b5b90600052602060002090600202016040518060400160405290816000820180546105b79061122a565b80601f01602080910402602001604051908101604052809291908181526020018280546105e39061122a565b80156106305780601f1061060557610100808354040283529160200191610630565b820191906000526020600020905b81548152906001019060200180831161061357829003601f168201915b5050505050815260200160018201548152505091505b80806106519061125b565b915050610518565b50809250505090565b6000818154811061067257600080fd5b90600052602060002090600202016000915090508060000180546106959061122a565b80601f01602080910402602001604051908101604052809291908181526020018280546106c19061122a565b801561070e5780601f106106e35761010080835404028352916020019161070e565b820191906000526020600020905b8154815290600101906020018083116106f157829003601f168201915b5050505050908060010154905082565b600160009054906101000a900473ffffffffffffffffffffffffffffffffffffffff1673ffffffffffffffffffffffffffffffffffffffff163373ffffffffffffffffffffffffffffffffffffffff161461077857600080fd5b600060405180604001604052808381526020016000815250908060018154018082558091505060019003906000526020600020906002020160009091909190915060008201518160000190816107ce919061144f565b5060208201518160010155505050565b60606000805480602002602001604051908101604052809291908181526020016000905b828210156108d057838290600052602060002090600202016040518060400160405290816000820180546108359061122a565b80601f01602080910402602001604051908101604052809291908181526020018280546108619061122a565b80156108ae5780601f10610883576101008083540402835291602001916108ae565b820191906000526020600020905b81548152906001019060200180831161089157829003601f168201915b5050505050815260200160018201548152505081526020019060010190610802565b50505050905090565b60045481565b600060035482101580156108f4575060045482105b9050919050565b73f39fd6e51aad88f6f4ce6ab8827279cfffb9226673ffffffffffffffffffffffffffffffffffffffff163373ffffffffffffffffffffffffffffffffffffffff1614806109885750736da9031429f83c8f3bcb225468535d7dd705e6e073ffffffffffffffffffffffffffffffffffffffff163373ffffffffffffffffffffffffffffffffffffffff16145b806109d257507390f79bf6eb2c4f870365e785982e1f101e93b90673ffffffffffffffffffffffffffffffffffffffff163373ffffffffffffffffffffffffffffffffffffffff16145b15610a3b5760006040518060400160405280838152602001600081525090806001815401808255809150506001900390600052602060002090600202016000909190919091506000820151816000019081610a2d919061144f565b506020820151816001015550505b50565b60026020528060005260406000206000915054906101000a900460ff1681565b604051806040016040528060608152602001600081525090565b6000604051905090565b600080fd5b600080fd5b6000819050919050565b610a9f81610a8c565b8114610aaa57600080fd5b50565b600081359050610abc81610a96565b92915050565b600060208284031215610ad857610ad7610a82565b5b6000610ae684828501610aad565b91505092915050565b610af881610a8c565b82525050565b6000602082019050610b136000830184610aef565b92915050565b600081519050919050565b600082825260208201905092915050565b60005b83811015610b53578082015181840152602081019050610b38565b60008484015250505050565b6000601f19601f8301169050919050565b6000610b7b82610b19565b610b858185610b24565b9350610b95818560208601610b35565b610b9e81610b5f565b840191505092915050565b610bb281610a8c565b82525050565b60006040830160008301518482036000860152610bd58282610b70565b9150506020830151610bea6020860182610ba9565b508091505092915050565b60006020820190508181036000830152610c0f8184610bb8565b905092915050565b600082825260208201905092915050565b6000610c3382610b19565b610c3d8185610c17565b9350610c4d818560208601610b35565b610c5681610b5f565b840191505092915050565b60006040820190508181036000830152610c7b8185610c28565b9050610c8a6020830184610aef565b9392505050565b600080fd5b600080fd5b7f4e487b7100000000000000000000000000000000000000000000000000000000600052604160045260246000fd5b610cd382610b5f565b810181811067ffffffffffffffff82111715610cf257610cf1610c9b565b5b80604052505050565b6000610d05610a78565b9050610d118282610cca565b919050565b600067ffffffffffffffff821115610d3157610d30610c9b565b5b610d3a82610b5f565b9050602081019050919050565b82818337600083830152505050565b6000610d69610d6484610d16565b610cfb565b905082815260208101848484011115610d8557610d84610c96565b5b610d90848285610d47565b509392505050565b600082601f830112610dad57610dac610c91565b5b8135610dbd848260208601610d56565b91505092915050565b600060208284031215610ddc57610ddb610a82565b5b600082013567ffffffffffffffff811115610dfa57610df9610a87565b5b610e0684828501610d98565b91505092915050565b600081519050919050565b600082825260208201905092915050565b6000819050602082019050919050565b60006040830160008301518482036000860152610e588282610b70565b9150506020830151610e6d6020860182610ba9565b508091505092915050565b6000610e848383610e3b565b905092915050565b6000602082019050919050565b6000610ea482610e0f565b610eae8185610e1a565b935083602082028501610ec085610e2b565b8060005b85811015610efc5784840389528151610edd8582610e78565b9450610ee883610e8c565b925060208a01995050600181019050610ec4565b50829750879550505050505092915050565b60006020820190508181036000830152610f288184610e99565b905092915050565b60008115159050919050565b610f4581610f30565b82525050565b6000602082019050610f606000830184610f3c565b92915050565b600073ffffffffffffffffffffffffffffffffffffffff82169050919050565b6000610f9182610f66565b9050919050565b610fa181610f86565b8114610fac57600080fd5b50565b600081359050610fbe81610f98565b92915050565b600060208284031215610fda57610fd9610a82565b5b6000610fe884828501610faf565b91505092915050565b7f596f75206861766520616c726561647920766f7465642e000000000000000000600082015250565b6000611027601783610c17565b915061103282610ff1565b602082019050919050565b600060208201905081810360008301526110568161101a565b9050919050565b7f496e76616c69642063616e64696461746520696e6465782e0000000000000000600082015250565b6000611093601883610c17565b915061109e8261105d565b602082019050919050565b600060208201905081810360008301526110c281611086565b9050919050565b7f4e487b7100000000000000000000000000000000000000000000000000000000600052603260045260246000fd5b7f4e487b7100000000000000000000000000000000000000000000000000000000600052601160045260246000fd5b600061113282610a8c565b915061113d83610a8c565b9250828201905080821115611155576111546110f8565b5b92915050565b7f566f74696e6720686173206e6f742073746172746564207965742e0000000000600082015250565b6000611191601b83610c17565b915061119c8261115b565b602082019050919050565b600060208201905081810360008301526111c081611184565b9050919050565b60006111d282610a8c565b91506111dd83610a8c565b92508282039050818111156111f5576111f46110f8565b5b92915050565b7f4e487b7100000000000000000000000000000000000000000000000000000000600052602260045260246000fd5b6000600282049050600182168061124257607f821691505b602082108103611255576112546111fb565b5b50919050565b600061126682610a8c565b91507fffffffffffffffffffffffffffffffffffffffffffffffffffffffffffffffff8203611298576112976110f8565b5b600182019050919050565b60008190508160005260206000209050919050565b60006020601f8301049050919050565b600082821b905092915050565b6000600883026113057fffffffffffffffffffffffffffffffffffffffffffffffffffffffffffffffff826112c8565b61130f86836112c8565b95508019841693508086168417925050509392505050565b6000819050919050565b600061134c61134761134284610a8c565b611327565b610a8c565b9050919050565b6000819050919050565b61136683611331565b61137a61137282611353565b8484546112d5565b825550505050565b600090565b61138f611382565b61139a81848461135d565b505050565b5b818110156113be576113b3600082611387565b6001810190506113a0565b5050565b601f821115611403576113d4816112a3565b6113dd846112b8565b810160208510156113ec578190505b6114006113f8856112b8565b83018261139f565b50505b505050565b600082821c905092915050565b600061142660001984600802611408565b1980831691505092915050565b600061143f8383611415565b9150826002028217905092915050565b61145882610b19565b67ffffffffffffffff81111561147157611470610c9b565b5b61147b825461122a565b6114868282856113c2565b600060209050601f8311600181146114b957600084156114a7578287015190505b6114b18582611433565b865550611519565b601f1984166114c7866112a3565b60005b828110156114ef578489015182556001820191506020850194506020810190506114ca565b8683101561150c5784890151611508601f891682611415565b8355505b6001600288020188555050505b50505050505056fea264697066735822122052ab67fbe5723d8c6dc4521f8d58edbddfeef2648b5f5f4ab77c584a9d9e239364736f6c63430008140033",
  "linkReferences": {},
  "deployedLinkReferences": {}
}